{
  "contractName": "StakingContract",
  "abi": [
    {
      "inputs": [
        {
          "internalType": "contract IERC20",
          "name": "_stakingToken",
          "type": "address"
        },
        {
          "internalType": "contract IERC20",
          "name": "_rewardToken",
          "type": "address"
        },
        {
          "internalType": "uint256",
          "name": "_rewardRate",
          "type": "uint256"
        }
      ],
      "stateMutability": "nonpayable",
      "type": "constructor"
    },
    {
      "inputs": [
        {
          "internalType": "address",
          "name": "target",
          "type": "address"
        }
      ],
      "name": "AddressEmptyCode",
      "type": "error"
    },
    {
      "inputs": [
        {
          "internalType": "address",
          "name": "account",
          "type": "address"
        }
      ],
      "name": "AddressInsufficientBalance",
      "type": "error"
    },
    {
      "inputs": [],
      "name": "FailedInnerCall",
      "type": "error"
    },
    {
      "inputs": [
        {
          "internalType": "address",
          "name": "owner",
          "type": "address"
        }
      ],
      "name": "OwnableInvalidOwner",
      "type": "error"
    },
    {
      "inputs": [
        {
          "internalType": "address",
          "name": "account",
          "type": "address"
        }
      ],
      "name": "OwnableUnauthorizedAccount",
      "type": "error"
    },
    {
      "inputs": [
        {
          "internalType": "address",
          "name": "token",
          "type": "address"
        }
      ],
      "name": "SafeERC20FailedOperation",
      "type": "error"
    },
    {
      "anonymous": false,
      "inputs": [
        {
          "indexed": true,
          "internalType": "address",
          "name": "previousOwner",
          "type": "address"
        },
        {
          "indexed": true,
          "internalType": "address",
          "name": "newOwner",
          "type": "address"
        }
      ],
      "name": "OwnershipTransferred",
      "type": "event"
    },
    {
      "anonymous": false,
      "inputs": [
        {
          "indexed": true,
          "internalType": "address",
          "name": "user",
          "type": "address"
        },
        {
          "indexed": false,
          "internalType": "uint256",
          "name": "reward",
          "type": "uint256"
        }
      ],
      "name": "RewardPaid",
      "type": "event"
    },
    {
      "anonymous": false,
      "inputs": [
        {
          "indexed": false,
          "internalType": "uint256",
          "name": "newRate",
          "type": "uint256"
        }
      ],
      "name": "RewardRateUpdated",
      "type": "event"
    },
    {
      "anonymous": false,
      "inputs": [
        {
          "indexed": true,
          "internalType": "address",
          "name": "user",
          "type": "address"
        },
        {
          "indexed": false,
          "internalType": "uint256",
          "name": "amount",
          "type": "uint256"
        }
      ],
      "name": "Staked",
      "type": "event"
    },
    {
      "anonymous": false,
      "inputs": [
        {
          "indexed": true,
          "internalType": "address",
          "name": "user",
          "type": "address"
        },
        {
          "indexed": false,
          "internalType": "uint256",
          "name": "amount",
          "type": "uint256"
        }
      ],
      "name": "Withdrawn",
      "type": "event"
    },
    {
      "inputs": [],
      "name": "owner",
      "outputs": [
        {
          "internalType": "address",
          "name": "",
          "type": "address"
        }
      ],
      "stateMutability": "view",
      "type": "function"
    },
    {
      "inputs": [],
      "name": "renounceOwnership",
      "outputs": [],
      "stateMutability": "nonpayable",
      "type": "function"
    },
    {
      "inputs": [],
      "name": "rewardRate",
      "outputs": [
        {
          "internalType": "uint256",
          "name": "",
          "type": "uint256"
        }
      ],
      "stateMutability": "view",
      "type": "function"
    },
    {
      "inputs": [],
      "name": "rewardToken",
      "outputs": [
        {
          "internalType": "contract IERC20",
          "name": "",
          "type": "address"
        }
      ],
      "stateMutability": "view",
      "type": "function"
    },
    {
      "inputs": [],
      "name": "stakingToken",
      "outputs": [
        {
          "internalType": "contract IERC20",
          "name": "",
          "type": "address"
        }
      ],
      "stateMutability": "view",
      "type": "function"
    },
    {
      "inputs": [],
      "name": "totalStaked",
      "outputs": [
        {
          "internalType": "uint256",
          "name": "",
          "type": "uint256"
        }
      ],
      "stateMutability": "view",
      "type": "function"
    },
    {
      "inputs": [
        {
          "internalType": "address",
          "name": "newOwner",
          "type": "address"
        }
      ],
      "name": "transferOwnership",
      "outputs": [],
      "stateMutability": "nonpayable",
      "type": "function"
    },
    {
      "inputs": [
        {
          "internalType": "address",
          "name": "",
          "type": "address"
        }
      ],
      "name": "userInfo",
      "outputs": [
        {
          "internalType": "uint256",
          "name": "stakedAmount",
          "type": "uint256"
        },
        {
          "internalType": "uint256",
          "name": "rewardDebt",
          "type": "uint256"
        },
        {
          "internalType": "uint256",
          "name": "lastUpdated",
          "type": "uint256"
        }
      ],
      "stateMutability": "view",
      "type": "function"
    },
    {
      "inputs": [
        {
          "internalType": "address",
          "name": "account",
          "type": "address"
        }
      ],
      "name": "pendingReward",
      "outputs": [
        {
          "internalType": "uint256",
          "name": "",
          "type": "uint256"
        }
      ],
      "stateMutability": "view",
      "type": "function"
    },
    {
      "inputs": [
        {
          "internalType": "uint256",
          "name": "amount",
          "type": "uint256"
        }
      ],
      "name": "stake",
      "outputs": [],
      "stateMutability": "nonpayable",
      "type": "function"
    },
    {
      "inputs": [
        {
          "internalType": "uint256",
          "name": "amount",
          "type": "uint256"
        }
      ],
      "name": "withdraw",
      "outputs": [],
      "stateMutability": "nonpayable",
      "type": "function"
    },
    {
      "inputs": [],
      "name": "getReward",
      "outputs": [],
      "stateMutability": "nonpayable",
      "type": "function"
    },
    {
      "inputs": [
        {
          "internalType": "uint256",
          "name": "newRate",
          "type": "uint256"
        }
      ],
      "name": "updateRewardRate",
      "outputs": [],
      "stateMutability": "nonpayable",
      "type": "function"
    }
  ],
  "bytecode": "0x608060405234801562000010575f80fd5b506040516200180a3803806200180a8339818101604052810190620000369190620002bd565b335f73ffffffffffffffffffffffffffffffffffffffff168173ffffffffffffffffffffffffffffffffffffffff1603620000aa575f6040517f1e4fbdf7000000000000000000000000000000000000000000000000000000008152600401620000a1919062000327565b60405180910390fd5b620000bb816200014c60201b60201c565b508260015f6101000a81548173ffffffffffffffffffffffffffffffffffffffff021916908373ffffffffffffffffffffffffffffffffffffffff1602179055508160025f6101000a81548173ffffffffffffffffffffffffffffffffffffffff021916908373ffffffffffffffffffffffffffffffffffffffff1602179055508060038190555050505062000342565b5f805f9054906101000a900473ffffffffffffffffffffffffffffffffffffffff169050815f806101000a81548173ffffffffffffffffffffffffffffffffffffffff021916908373ffffffffffffffffffffffffffffffffffffffff1602179055508173ffffffffffffffffffffffffffffffffffffffff168173ffffffffffffffffffffffffffffffffffffffff167f8be0079c531659141344cd1fd0a4f28419497f9722a3daafe3b4186f6b6457e060405160405180910390a35050565b5f80fd5b5f73ffffffffffffffffffffffffffffffffffffffff82169050919050565b5f6200023c8262000211565b9050919050565b5f6200024f8262000230565b9050919050565b620002618162000243565b81146200026c575f80fd5b50565b5f815190506200027f8162000256565b92915050565b5f819050919050565b620002998162000285565b8114620002a4575f80fd5b50565b5f81519050620002b7816200028e565b92915050565b5f805f60608486031215620002d757620002d66200020d565b5b5f620002e6868287016200026f565b9350506020620002f9868287016200026f565b92505060406200030c86828701620002a7565b9150509250925092565b620003218162000230565b82525050565b5f6020820190506200033c5f83018462000316565b92915050565b6114ba80620003505f395ff3fe608060405234801561000f575f80fd5b50600436106100cd575f3560e01c8063817b1cd21161008a578063a694fc3a11610064578063a694fc3a146101c7578063f2fde38b146101e3578063f40f0f52146101ff578063f7c618c11461022f576100cd565b8063817b1cd21461016f5780638da5cb5b1461018d5780639ef3a261146101ab576100cd565b80631959a002146100d15780632e1a7d4d146101035780633d18b9121461011f578063715018a61461012957806372f702f3146101335780637b0a47ee14610151575b5f80fd5b6100eb60048036038101906100e69190610f40565b61024d565b6040516100fa93929190610f83565b60405180910390f35b61011d60048036038101906101189190610fe2565b610273565b005b6101276104af565b005b610131610685565b005b61013b610698565b6040516101489190611068565b60405180910390f35b6101596106bd565b6040516101669190611081565b60405180910390f35b6101776106c3565b6040516101849190611081565b60405180910390f35b6101956106c9565b6040516101a291906110a9565b60405180910390f35b6101c560048036038101906101c09190610fe2565b6106f0565b005b6101e160048036038101906101dc9190610fe2565b610739565b005b6101fd60048036038101906101f89190610f40565b610931565b005b61021960048036038101906102149190610f40565b6109b5565b6040516102269190611081565b60405180910390f35b610237610a29565b6040516102449190611068565b60405180910390f35b6005602052805f5260405f205f91509050805f0154908060010154908060020154905083565b335f73ffffffffffffffffffffffffffffffffffffffff168173ffffffffffffffffffffffffffffffffffffffff1614610317575f60055f8373ffffffffffffffffffffffffffffffffffffffff1673ffffffffffffffffffffffffffffffffffffffff1681526020019081526020015f2090505f6102f1836109b5565b905080826001015461030391906110ef565b826001018190555042826002018190555050505b5f8211610359576040517f08c379a00000000000000000000000000000000000000000000000000000000081526004016103509061117c565b60405180910390fd5b5f60055f3373ffffffffffffffffffffffffffffffffffffffff1673ffffffffffffffffffffffffffffffffffffffff1681526020019081526020015f20905082815f015410156103df576040517f08c379a00000000000000000000000000000000000000000000000000000000081526004016103d6906111e4565b60405180910390fd5b82815f015f8282546103f19190611202565b925050819055508260045f8282546104099190611202565b9250508190555061045c338460015f9054906101000a900473ffffffffffffffffffffffffffffffffffffffff1673ffffffffffffffffffffffffffffffffffffffff16610a4e9092919063ffffffff16565b3373ffffffffffffffffffffffffffffffffffffffff167f7084f5476618d8e60b11ef0d7d3f06914655adb8793e28ff7f018d4c76d505d5846040516104a29190611081565b60405180910390a2505050565b335f73ffffffffffffffffffffffffffffffffffffffff168173ffffffffffffffffffffffffffffffffffffffff1614610553575f60055f8373ffffffffffffffffffffffffffffffffffffffff1673ffffffffffffffffffffffffffffffffffffffff1681526020019081526020015f2090505f61052d836109b5565b905080826001015461053f91906110ef565b826001018190555042826002018190555050505b5f60055f3373ffffffffffffffffffffffffffffffffffffffff1673ffffffffffffffffffffffffffffffffffffffff1681526020019081526020015f2090505f816001015490505f81116105dd576040517f08c379a00000000000000000000000000000000000000000000000000000000081526004016105d49061127f565b60405180910390fd5b5f8260010181905550610632338260025f9054906101000a900473ffffffffffffffffffffffffffffffffffffffff1673ffffffffffffffffffffffffffffffffffffffff16610a4e9092919063ffffffff16565b3373ffffffffffffffffffffffffffffffffffffffff167fe2403640ba68fed3a2f88b7557551d1993f84b99bb10ff833f0cf8db0c5e0486826040516106789190611081565b60405180910390a2505050565b61068d610acd565b6106965f610b54565b565b60015f9054906101000a900473ffffffffffffffffffffffffffffffffffffffff1681565b60035481565b60045481565b5f805f9054906101000a900473ffffffffffffffffffffffffffffffffffffffff16905090565b6106f8610acd565b806003819055507f41d466ebd06fb97e7786086ac8b69b7eb7da798592036251291d34e9791cde018160405161072e9190611081565b60405180910390a150565b335f73ffffffffffffffffffffffffffffffffffffffff168173ffffffffffffffffffffffffffffffffffffffff16146107dd575f60055f8373ffffffffffffffffffffffffffffffffffffffff1673ffffffffffffffffffffffffffffffffffffffff1681526020019081526020015f2090505f6107b7836109b5565b90508082600101546107c991906110ef565b826001018190555042826002018190555050505b5f821161081f576040517f08c379a0000000000000000000000000000000000000000000000000000000008152600401610816906112e7565b60405180910390fd5b5f60055f3373ffffffffffffffffffffffffffffffffffffffff1673ffffffffffffffffffffffffffffffffffffffff1681526020019081526020015f2090506108ad33308560015f9054906101000a900473ffffffffffffffffffffffffffffffffffffffff1673ffffffffffffffffffffffffffffffffffffffff16610c15909392919063ffffffff16565b82815f015f8282546108bf91906110ef565b925050819055508260045f8282546108d791906110ef565b925050819055503373ffffffffffffffffffffffffffffffffffffffff167f9e71bc8eea02a63969f509818f2dafb9254532904319f9dbda79b67bd34a5f3d846040516109249190611081565b60405180910390a2505050565b610939610acd565b5f73ffffffffffffffffffffffffffffffffffffffff168173ffffffffffffffffffffffffffffffffffffffff16036109a9575f6040517f1e4fbdf70000000000000000000000000000000000000000000000000000000081526004016109a091906110a9565b60405180910390fd5b6109b281610b54565b50565b5f8060055f8473ffffffffffffffffffffffffffffffffffffffff1673ffffffffffffffffffffffffffffffffffffffff1681526020019081526020015f209050600354815f0154826002015442610a0d9190611202565b610a179190611305565b610a219190611305565b915050919050565b60025f9054906101000a900473ffffffffffffffffffffffffffffffffffffffff1681565b610ac8838473ffffffffffffffffffffffffffffffffffffffff1663a9059cbb8585604051602401610a81929190611346565b604051602081830303815290604052915060e01b6020820180517bffffffffffffffffffffffffffffffffffffffffffffffffffffffff8381831617835250505050610c97565b505050565b610ad5610d2c565b73ffffffffffffffffffffffffffffffffffffffff16610af36106c9565b73ffffffffffffffffffffffffffffffffffffffff1614610b5257610b16610d2c565b6040517f118cdaa7000000000000000000000000000000000000000000000000000000008152600401610b4991906110a9565b60405180910390fd5b565b5f805f9054906101000a900473ffffffffffffffffffffffffffffffffffffffff169050815f806101000a81548173ffffffffffffffffffffffffffffffffffffffff021916908373ffffffffffffffffffffffffffffffffffffffff1602179055508173ffffffffffffffffffffffffffffffffffffffff168173ffffffffffffffffffffffffffffffffffffffff167f8be0079c531659141344cd1fd0a4f28419497f9722a3daafe3b4186f6b6457e060405160405180910390a35050565b610c91848573ffffffffffffffffffffffffffffffffffffffff166323b872dd868686604051602401610c4a9392919061136d565b604051602081830303815290604052915060e01b6020820180517bffffffffffffffffffffffffffffffffffffffffffffffffffffffff8381831617835250505050610c97565b50505050565b5f610cc1828473ffffffffffffffffffffffffffffffffffffffff16610d3390919063ffffffff16565b90505f815114158015610ce5575080806020019051810190610ce391906113d7565b155b15610d2757826040517f5274afe7000000000000000000000000000000000000000000000000000000008152600401610d1e91906110a9565b60405180910390fd5b505050565b5f33905090565b6060610d4083835f610d48565b905092915050565b606081471015610d8f57306040517fcd786059000000000000000000000000000000000000000000000000000000008152600401610d8691906110a9565b60405180910390fd5b5f808573ffffffffffffffffffffffffffffffffffffffff168486604051610db7919061146e565b5f6040518083038185875af1925050503d805f8114610df1576040519150601f19603f3d011682016040523d82523d5f602084013e610df6565b606091505b5091509150610e06868383610e11565b925050509392505050565b606082610e2657610e2182610e9e565b610e96565b5f8251148015610e4c57505f8473ffffffffffffffffffffffffffffffffffffffff163b145b15610e8e57836040517f9996b315000000000000000000000000000000000000000000000000000000008152600401610e8591906110a9565b60405180910390fd5b819050610e97565b5b9392505050565b5f81511115610eb05780518082602001fd5b6040517f1425ea4200000000000000000000000000000000000000000000000000000000815260040160405180910390fd5b5f80fd5b5f73ffffffffffffffffffffffffffffffffffffffff82169050919050565b5f610f0f82610ee6565b9050919050565b610f1f81610f05565b8114610f29575f80fd5b50565b5f81359050610f3a81610f16565b92915050565b5f60208284031215610f5557610f54610ee2565b5b5f610f6284828501610f2c565b91505092915050565b5f819050919050565b610f7d81610f6b565b82525050565b5f606082019050610f965f830186610f74565b610fa36020830185610f74565b610fb06040830184610f74565b949350505050565b610fc181610f6b565b8114610fcb575f80fd5b50565b5f81359050610fdc81610fb8565b92915050565b5f60208284031215610ff757610ff6610ee2565b5b5f61100484828501610fce565b91505092915050565b5f819050919050565b5f61103061102b61102684610ee6565b61100d565b610ee6565b9050919050565b5f61104182611016565b9050919050565b5f61105282611037565b9050919050565b61106281611048565b82525050565b5f60208201905061107b5f830184611059565b92915050565b5f6020820190506110945f830184610f74565b92915050565b6110a381610f05565b82525050565b5f6020820190506110bc5f83018461109a565b92915050565b7f4e487b71000000000000000000000000000000000000000000000000000000005f52601160045260245ffd5b5f6110f982610f6b565b915061110483610f6b565b925082820190508082111561111c5761111b6110c2565b5b92915050565b5f82825260208201905092915050565b7f43616e6e6f7420776974686472617720300000000000000000000000000000005f82015250565b5f611166601183611122565b915061117182611132565b602082019050919050565b5f6020820190508181035f8301526111938161115a565b9050919050565b7f576974686472617720616d6f756e7420657863656564732062616c616e6365005f82015250565b5f6111ce601f83611122565b91506111d98261119a565b602082019050919050565b5f6020820190508181035f8301526111fb816111c2565b9050919050565b5f61120c82610f6b565b915061121783610f6b565b925082820390508181111561122f5761122e6110c2565b5b92915050565b7f4e6f207265776172647320746f20636c61696d000000000000000000000000005f82015250565b5f611269601383611122565b915061127482611235565b602082019050919050565b5f6020820190508181035f8301526112968161125d565b9050919050565b7f43616e6e6f74207374616b6520300000000000000000000000000000000000005f82015250565b5f6112d1600e83611122565b91506112dc8261129d565b602082019050919050565b5f6020820190508181035f8301526112fe816112c5565b9050919050565b5f61130f82610f6b565b915061131a83610f6b565b925082820261132881610f6b565b9150828204841483151761133f5761133e6110c2565b5b5092915050565b5f6040820190506113595f83018561109a565b6113666020830184610f74565b9392505050565b5f6060820190506113805f83018661109a565b61138d602083018561109a565b61139a6040830184610f74565b949350505050565b5f8115159050919050565b6113b6816113a2565b81146113c0575f80fd5b50565b5f815190506113d1816113ad565b92915050565b5f602082840312156113ec576113eb610ee2565b5b5f6113f9848285016113c3565b91505092915050565b5f81519050919050565b5f81905092915050565b5f5b83811015611433578082015181840152602081019050611418565b5f8484015250505050565b5f61144882611402565b611452818561140c565b9350611462818560208601611416565b80840191505092915050565b5f611479828461143e565b91508190509291505056fea2646970667358221220a6e5f132c5ef1d7824517dec118e3994d1240077625bd674684e52927646467164736f6c63430008150033",
  "immutableReferences": {},
  "source": "// SPDX-License-Identifier: UNLICENSED\r\npragma solidity ^0.8.21;\r\n\r\nimport \"@openzeppelin/contracts/token/ERC20/utils/SafeERC20.sol\";\r\nimport \"@openzeppelin/contracts/access/Ownable.sol\";\r\n\r\ncontract StakingContract is Ownable {\r\n    using SafeERC20 for IERC20;\r\n\r\n    IERC20 public stakingToken;\r\n    IERC20 public rewardToken;\r\n    uint256 public rewardRate; // Reward rate per token per second\r\n    uint256 public totalStaked;\r\n    \r\n    struct UserInfo {\r\n        uint256 stakedAmount;\r\n        uint256 rewardDebt;\r\n        uint256 lastUpdated;\r\n    }\r\n\r\n    mapping(address => UserInfo) public userInfo;\r\n\r\n    event Staked(address indexed user, uint256 amount);\r\n    event Withdrawn(address indexed user, uint256 amount);\r\n    event RewardPaid(address indexed user, uint256 reward);\r\n    event RewardRateUpdated(uint256 newRate);\r\n\r\n    constructor(IERC20 _stakingToken, IERC20 _rewardToken, uint256 _rewardRate) Ownable(msg.sender) {\r\n        stakingToken = _stakingToken;\r\n        rewardToken = _rewardToken;\r\n        rewardRate = _rewardRate;\r\n    }\r\n\r\n    modifier updateReward(address account) {\r\n        if (account != address(0)) {\r\n            UserInfo storage user = userInfo[account];\r\n            uint256 reward = pendingReward(account);\r\n            user.rewardDebt = user.rewardDebt + reward;\r\n            user.lastUpdated = block.timestamp;\r\n        }\r\n        _;\r\n    }\r\n\r\n    function pendingReward(address account) public view returns (uint256) {\r\n        UserInfo storage user = userInfo[account];\r\n        return (block.timestamp - user.lastUpdated) * user.stakedAmount * rewardRate;\r\n    }\r\n\r\n    function stake(uint256 amount) external updateReward(msg.sender) {\r\n        require(amount > 0, \"Cannot stake 0\");\r\n        UserInfo storage user = userInfo[msg.sender];\r\n        stakingToken.safeTransferFrom(msg.sender, address(this), amount);\r\n        user.stakedAmount += amount;\r\n        totalStaked += amount;\r\n        emit Staked(msg.sender, amount);\r\n    }\r\n\r\n    function withdraw(uint256 amount) external updateReward(msg.sender) {\r\n        require(amount > 0, \"Cannot withdraw 0\");\r\n        UserInfo storage user = userInfo[msg.sender];\r\n        require(user.stakedAmount >= amount, \"Withdraw amount exceeds balance\");\r\n        user.stakedAmount -= amount;\r\n        totalStaked -= amount;\r\n        stakingToken.safeTransfer(msg.sender, amount);\r\n        emit Withdrawn(msg.sender, amount);\r\n    }\r\n\r\n    function getReward() external updateReward(msg.sender) {\r\n        UserInfo storage user = userInfo[msg.sender];\r\n        uint256 reward = user.rewardDebt;\r\n        require(reward > 0, \"No rewards to claim\");\r\n        user.rewardDebt = 0;\r\n        rewardToken.safeTransfer(msg.sender, reward);\r\n        emit RewardPaid(msg.sender, reward);\r\n    }\r\n\r\n    function updateRewardRate(uint256 newRate) external onlyOwner {\r\n        rewardRate = newRate;\r\n        emit RewardRateUpdated(newRate);\r\n    }\r\n}\r\n",
  "sourcePath": "C:\\Users\\annic\\OneDrive\\Desktop\\Moha skola\\BCU23\\Neoki-task\\Task-LIA\\staking-smartContract\\contracts\\StakingContract.sol",
  "compiler": {
    "name": "solc",
    "version": "0.8.21+commit.d9974bed.Emscripten.clang"
  },
  "schemaVersion": "3.4.16",
  "updatedAt": "2024-07-06T20:26:46.515Z",
  "devdoc": {
    "errors": {
      "AddressEmptyCode(address)": [
        {
          "details": "There's no code at `target` (it is not a contract)."
        }
      ],
      "AddressInsufficientBalance(address)": [
        {
          "details": "The ETH balance of the account is not enough to perform the operation."
        }
      ],
      "FailedInnerCall()": [
        {
          "details": "A call to an address target failed. The target may have reverted."
        }
      ],
      "OwnableInvalidOwner(address)": [
        {
          "details": "The owner is not a valid owner account. (eg. `address(0)`)"
        }
      ],
      "OwnableUnauthorizedAccount(address)": [
        {
          "details": "The caller account is not authorized to perform an operation."
        }
      ],
      "SafeERC20FailedOperation(address)": [
        {
          "details": "An operation with an ERC20 token failed."
        }
      ]
    },
    "kind": "dev",
    "methods": {
      "owner()": {
        "details": "Returns the address of the current owner."
      },
      "renounceOwnership()": {
        "details": "Leaves the contract without owner. It will not be possible to call `onlyOwner` functions. Can only be called by the current owner. NOTE: Renouncing ownership will leave the contract without an owner, thereby disabling any functionality that is only available to the owner."
      },
      "transferOwnership(address)": {
        "details": "Transfers ownership of the contract to a new account (`newOwner`). Can only be called by the current owner."
      }
    },
    "version": 1
  },
  "userdoc": {
    "kind": "user",
    "methods": {},
    "version": 1
  }
}